{
  "contractName": "CommunityCanvas",
  "abi": [
    {
      "constant": true,
      "inputs": [
        {
          "name": "",
          "type": "uint256"
        }
      ],
      "name": "pixels",
      "outputs": [
        {
          "name": "",
          "type": "uint8"
        }
      ],
      "payable": false,
      "stateMutability": "view",
      "type": "function"
    },
    {
      "constant": true,
      "inputs": [
        {
          "name": "target",
          "type": "uint24"
        },
        {
          "name": "color",
          "type": "uint8"
        }
      ],
      "name": "getSpecificPixel",
      "outputs": [
        {
          "name": "",
          "type": "uint8"
        },
        {
          "name": "",
          "type": "uint64"
        }
      ],
      "payable": false,
      "stateMutability": "view",
      "type": "function"
    },
    {
      "constant": false,
      "inputs": [
        {
          "name": "pixel",
          "type": "uint24"
        },
        {
          "name": "color",
          "type": "uint8"
        }
      ],
      "name": "changePixel",
      "outputs": [
        {
          "name": "",
          "type": "uint8"
        }
      ],
      "payable": false,
      "stateMutability": "nonpayable",
      "type": "function"
    },
    {
      "payable": false,
      "stateMutability": "view",
      "type": "function",
      "constant": true,
      "inputs": [],
      "name": "getPixels",
      "outputs": [
        {
          "name": "",
          "type": "uint8[786432]"
        }
      ]
    },
    {
      "payable": true,
      "stateMutability": "payable",
      "type": "fallback"
    }
  ],
  "bytecode": "0x6060604052341561000f57600080fd5b6104bc8061001e6000396000f300606060405260043610610062576000357c0100000000000000000000000000000000000000000000000000000000900463ffffffff1680638da7f23214610064578063cf592824146100a1578063d54df124146100fe578063feeac6191461014c575b005b341561006f57600080fd5b610085600480803590602001909190505061019f565b604051808260ff1660ff16815260200191505060405180910390f35b34156100ac57600080fd5b6100c7600480803562ffffff169060200190919050506101ca565b604051808360ff1660ff1681526020018267ffffffffffffffff1667ffffffffffffffff1681526020019250505060405180910390f35b341561010957600080fd5b610130600480803562ffffff1690602001909190803560ff16906020019091905050610235565b604051808260ff1660ff16815260200191505060405180910390f35b341561015757600080fd5b61015f6103eb565b6040518082620c000060200280838360005b8381101561018c578082015181840152602081019050610171565b5050505090500191505060405180910390f35b600081620c0000811015156101b057fe5b60209182820401919006915054906101000a900460ff1681565b60008060008362ffffff16620c0000811015156101e357fe5b602091828204019190069054906101000a900460ff1661600060008562ffffff1662ffffff16815260200190815260200160002060009054906101000a900467ffffffffffffffff1691509150915091565b600061012c420167ffffffffffffffff1661600160003373ffffffffffffffffffffffffffffffffffffffff1673ffffffffffffffffffffffffffffffffffffffff16815260200190815260200160002060009054906101000a900467ffffffffffffffff1667ffffffffffffffff16111515156102b257600080fd5b60008362ffffff16101580156102d05750620bffff8362ffffff1611155b15156102db57600080fd5b60008260ff16101580156102f35750600f8260ff1611155b15156102fe57600080fd5b4261600160003373ffffffffffffffffffffffffffffffffffffffff1673ffffffffffffffffffffffffffffffffffffffff16815260200190815260200160002060006101000a81548167ffffffffffffffff021916908367ffffffffffffffff1602179055508160008462ffffff16620c00008110151561037c57fe5b602091828204019190066101000a81548160ff021916908360ff1602179055504261600060008562ffffff1662ffffff16815260200190815260200160002060006101000a81548167ffffffffffffffff021916908367ffffffffffffffff1602179055506000905092915050565b6103f3610460565b6000620c0000806020026040519081016040528092919082620c00008015610456576020028201916000905b82829054906101000a900460ff1660ff168152602001906001019060208260000104928301926001038202915080841161041f5790505b5050505050905090565b630180000060405190810160405280620c0000905b600060ff1681526020019060019003908161047557905050905600a165627a7a723058201a106d03f112b80a6e833a593a231d0b6f98f68022260677e73b20b28ec3fea40029",
  "source": "pragma solidity ^0.4.4;\n\ncontract CommunityCanvas {\n\n  uint8[786432] public pixels;\n  mapping(uint24 => uint64) pixelToEditMap;\n  mapping(address => uint64) personToLastEdit;\n\n  function changePixel(uint24 pixel, uint8 color) public returns(uint8) {\n    require(personToLastEdit[msg.sender] <= uint64(now) + 300);\n    require(pixel >= 0 && pixel <= 786431);\n    require(color >= 0 && color <= 15);\n\n    personToLastEdit[msg.sender] = uint64(now);\n\n    pixels[pixel] = color;\n    pixelToEditMap[pixel] = uint64(now);\n\n    return 0;\n  }\n\n  function getPixels() public view returns (uint8[786432]) {\n    return pixels;\n  }\n\n  function getSpecificPixel(uint24 target) public view returns (uint8, uint64) {\n    return (pixels[target], pixelToEditMap[target]);\n  }\n\n  function () public payable {}\n\n}\n",
  "sourcePath": "/Users/brianvodicka/Documents/learning/solidity/communitycanvas/contracts/CommunityCanvas.sol",
  "compiler": {
    "name": "solc",
    "version": "0.4.18+commit.9cf6e910.Emscripten.clang"
  },
  "schemaVersion": "1.0.1",
  "updatedAt": "2017-12-18T04:32:22.495Z"
}